{
  "contractName": "VideoAuth",
  "abi": [
    {
      "constant": false,
      "inputs": [
        {
          "name": "new_hash",
          "type": "string"
        }
      ],
      "name": "store_hash",
      "outputs": [
        {
          "name": "",
          "type": "bool"
        }
      ],
      "payable": false,
      "stateMutability": "nonpayable",
      "type": "function"
    },
    {
      "constant": false,
      "inputs": [
        {
          "name": "unknown_hash",
          "type": "string"
        }
      ],
      "name": "compare_hash",
      "outputs": [
        {
          "name": "",
          "type": "bool"
        }
      ],
      "payable": false,
      "stateMutability": "nonpayable",
      "type": "function"
    }
  ],
  "bytecode": "0x6060604052341561000f57600080fd5b6103998061001e6000396000f30060606040526000357c0100000000000000000000000000000000000000000000000000000000900463ffffffff168063152f7817146100485780635f1e1acb146100bd57600080fd5b341561005357600080fd5b6100a3600480803590602001908201803590602001908080601f01602080910402602001604051908101604052809392919081815260200183838082843782019150505050505091905050610132565b604051808215151515815260200191505060405180910390f35b34156100c857600080fd5b610118600480803590602001908201803590602001908080601f016020809104026020016040519081016040528093929190818152602001838380828437820191505050505050919050506101c4565b604051808215151515815260200191505060405180910390f35b600080826040518082805190602001908083835b60208310151561016b5780518252602082019150602081019050602083039250610146565b6001836020036101000a038019825116818451168082178552505050505050905001915050908152602001604051809103902060009054906101000a900460ff16156101ba57600190506101bf565b600090505b919050565b60008015156000836040518082805190602001908083835b60208310151561020157805182526020820191506020810190506020830392506101dc565b6001836020036101000a038019825116818451168082178552505050505050905001915050908152602001604051809103902060009054906101000a900460ff16151514156102d35760016000836040518082805190602001908083835b602083101515610284578051825260208201915060208101905060208303925061025f565b6001836020036101000a038019825116818451168082178552505050505050905001915050908152602001604051809103902060006101000a81548160ff0219169083151502179055506102dc565b60009050610368565b6000826040518082805190602001908083835b60208310151561031457805182526020820191506020810190506020830392506102ef565b6001836020036101000a038019825116818451168082178552505050505050905001915050908152602001604051809103902060009054906101000a900460ff16156103635760019050610368565b600090505b9190505600a165627a7a7230582019065237c2e35a189da12b3138834adb51b4be8222465280577ad7362a94b5290029",
  "source": "/********************************************************************************************\n\nEngineer: Jason Cadahia\nProject: VideoVouch\nOrganization: UTD Blockchain and Cryptography Club\nVersion:\nDate:\n\n********************************************************************************************/\n\npragma solidity ^0.4.17;\n\ncontract VideoAuth{ \n        mapping(string=>bool) vouched_videos; // hash map: key: SHA256 string, value: bool\n\n        function store_hash(string new_hash)public returns(bool){ \n          if(vouched_videos[new_hash]==false)\n            vouched_videos[new_hash]=true; // only store video if it does not already exist in hash map\n          else\n            return false; // do not store video if it already exists in hash map\n          if(vouched_videos[new_hash]) \n            return true; // return true if hash map was successfully updated with new video hash\n          else\n            return false;\n        }\n\n        function compare_hash(string unknown_hash)public returns(bool){ //view?\n          if(vouched_videos[unknown_hash])\n            return true;\n          else\n            return false;\n        }\n}\n",
  "sourcePath": "/home/jason/VideoAuth/video-auth/contracts/VideoAuth.sol",
  "compiler": {
    "name": "solc",
    "version": "0.4.17+commit.bdeb9e52.Emscripten.clang"
  },
  "schemaVersion": "3.1.0",
  "updatedAt": "2020-06-13T19:15:39.662Z",
  "networkType": "ethereum",
  "devdoc": {
    "methods": {}
  },
  "userdoc": {
    "methods": {}
  }
}